:020000040800F2
:1000000048050020552F0008DD2E0008DF2E0008CF
:10001000E12E0008E32E0008E52E00080000000095
:10002000000000000000000000000000E72E0008B3
:10003000E92E000800000000EB2E0008ED2E00085D
:10004000792F00087D2F0008812F0008852F0008D8
:10005000892F00088D2F0008912F0008952F000888
:10006000992F00089D2F0008A12F0008A52F000838
:10007000A92F0008AD2F0008B12F0008B52F0008E8
:10008000B92F0008BD2F0008C12F0008C52F000898
:10009000C92F0008CD2F0008D12F0008D52F000848
:1000A000D92F0008DD2F0008E12F0008E52F0008F8
:1000B000F12E0008E92F0008ED2F0008F12F0008AD
:1000C000F52F0008F92F0008FD2F00080130000867
:1000D00005300008093000080D3000081130000814
:1000E00015300008193000081D300008F8B504006C
:1000F00016D004F13C05687820B90021297020460B
:1001000000F053FC00F080F800F011FF0146606839
:10011000DFF8DC23904205D2DFF8D803814205D214
:100120000120F2BDDFF8D0038142F9D3DFF8E40308
:10013000B1FBF0F320684668B60943EA86164660CC
:100140002668376A6068904206D34FF4967043433E
:100150004FF47A70B3FBF0F35B1CBF0943EA8713DB
:100160003362491E2368DE696768974206D27F00C2
:1001700000F044F8042913D2042111E0A06820B94A
:1001800007EB470700F03AF805E01920474300F075
:1001900035F841F4804108050CBF012141F40041CC
:1001A000DFF8A00306400E43DE6121680A68E069BB
:1001B00022F0C0020243206A02430A602168DFF88D
:1001C00088038A68024020690243E06802438A602B
:1001D0002168CA68A3696069120A034343EA0222DC
:1001E000CA602068016841F0010101600020686078
:1001F0002020687000202063A870F2BDB1FBF7F1E9
:10020000491CC1F30B017047242068702068016805
:1002100049084900016070472DE9F84300F007FAEA
:1002200004F13C060546707820287CD100951923FE
:100230000122DFF8181300F088FA002873D1307813
:10024000012870D00121317000F015F900F004F997
:1002500000F0F9F9C4F82480A4F82A90608D00F029
:100260006DF8E16A08291CBF0129814205D0206B85
:10027000122804D100F0E1F901E000F01AF900952C
:100280000022DDF82080434600F05DFA002848D1C6
:100290002069B0F5804F04D1216807F0FE070F6197
:1002A00011E0F809216800F0060040F0F000086154
:1002B0002B464246DFF85C1300F051FA002830D19B
:1002C0002068FFB207612B4600F047FA002828D1CA
:1002D00000F0C9F8208D002828D02A4600F0D4F874
:1002E000D0B9606A22680178116100F0C4F9208DEC
:1002F000401E208521684A69530706D580B220B187
:10030000606A02780A6100F097F82A464146204662
:1003100000F0C3FA0028DDD07068042801D100F095
:1003200016FA012000E00220BDE8F28300F00FFA87
:10033000202070700020B0703070F5E72085DFF865
:10034000D802E06270472DE9FC4700F0D7F800F0D2
:10035000B6F86BD100F0C3F8002867D138780128CF
:1003600064D001213970306800F098F82346306875
:100370000A9D00F08DF878702A461020B87041462A
:1003800000207860C6F82490A6F82AA0708D3085E9
:10039000DFF88402F062304600F074F900283ED1A4
:1003A000308D10B900F058F91AE03168012802D1F7
:1003B00000F01FF904E00228086804D100F009F9F0
:1003C000016062B60CE000F0F8F809E000F0A4F873
:1003D000002824D130680169706A017000F075F856
:1003E000308D002825D0042816D20128EED000F048
:1003F0008BF809D100F0ACF8002810D172B600F0EB
:10040000ACF8716A0870E9E700F0A2F8002806D19C
:1004100000F0B9F818B9F2E700F07EF808B1012051
:1004200005E000F07EF8DBD50069EAE70220BDE8D0
:10043000F68700F00BF8FAE7606A411C6162608D94
:10044000411E6185208D411E2185704720207870D6
:100450000020B870387070472068016821F400618E
:1004600001602120704700902068416900918069F7
:1004700000900099704720680168CA0703D4026899
:1004800042F00102026070474146204600F0E9B99F
:10049000016821F400610160222070470168CA07E9
:1004A00003D4026842F001020260704741F48061A7
:1004B00001602068026842F480720260704706F1B1
:1004C0003C070446787820287047706A411C7162A6
:1004D000308D411E3185708D411E718570470094AD
:1004E000192301221949304600F047B900000000E5
:1004F000A186010080841E0000093D000646884652
:1005000091469A4600F040BD0228DFF848810094E9
:100510002B46704740420F0022462946304600F0E5
:10052000E7B930680169706A0170706A411C7162D4
:10053000308D411E3185708D411E71853068416955
:100540004A0770470030FFFF007CFFFF02001000E9
:1005500000224146304600F010B93068016841F48D
:100560000071016030680169706A0170706A411C35
:100570007162308D411E3185708D411E718562B66C
:100580003168086970473068016821F48061016052
:1005900072B62B4630680169706A01700022706A79
:1005A000411C7162308D411E3185708D411E7185F7
:1005B00000944146304600F0E0B840F480600860A6
:1005C0000021009130684169009180690090009994
:1005D000704740F40060086072B6002100913068F6
:1005E00041690091826900920099016821F480615B
:1005F0007047086820F48060086072B6002100919E
:10060000306841690091826900920099016841F463
:1006100000717047080001000000FFFF0090206893
:100620004169009182690092002200997047044656
:100630000F469046994600F0A7BC2068016841F437
:1006400080710160704770701020B0700020706081
:10065000704700000400010000903068416900917B
:10066000826900920099016841F40071016070474D
:100670000069616A0870606A411C6162608D411E98
:10068000618570472DE9F84304460D46E06A21680C
:1006900091460A6842F480620A6008281EBF012859
:1006A000304988421E4602D1FFF7C7FF07E0206BA2
:1006B000112804D12068036843F480730360009616
:1006C0004B4600F03FF8002837D12069DFF89880CA
:1006D000B0F5804F05D1216845F00105EDB20D61FF
:1006E00025E0EF09216807F0060747F0F0000861F0
:1006F00033464A461D4900F032F8F0B92068EDB2A1
:10070000056133464A46414600F029F8A8B90090F1
:100710004B46FFF784FF016841F480710160009649
:1007200000F011F848B9206847F0F1070761334637
:100730004A46414600F013F800B10120BDE8F283BB
:100740000096534600224FF00111204615E0206824
:10075000016841F400710160704742460249204639
:1007600039E000000000FFFF020001000800010066
:10077000026842F40072026070472DE9F8430F46A8
:10078000089C3D020646904699462D0E3068012D84
:100790000CBF40698069384080B2B9B288420CBF52
:1007A00001200020404513D119F1010FEED000F0D7
:1007B000EBFB001B814502D3B9F1000FE6D100200D
:1007C0003063202106F13C0000F088F8012000E0B1
:1007D0000020BDE8F2832DE9FC410F463D020646AC
:1007E000144698462D0E3068012D13D141693940C9
:1007F00089B2BAB2914213D041694A0512D5FFF7C6
:10080000B7FF6FF480603168486100F020F841F074
:10081000040116E08169394089B2BAB29142EBD144
:10082000002012E014F1010FDDD000F0ADFBA0EBD1
:100830000800844201D3002CD5D100F008F841F023
:1008400020014160002202700120BDE8F6810020F5
:100850003063202106F13C00417000218170416825
:10086000704770B505460C4616462868416908066B
:1008700011D4284600F064F858B914F1010FF4D0EF
:1008800000F082FB801B844201D3002CEDD100F0EC
:1008900020F8012070BD002070BD70B505460C46E3
:1008A000164628684169480711D4284600F048F8E0
:1008B00058B914F1010FF4D000F066FB801B84429C
:1008C00001D3002CEDD100F004F8012070BD002010
:1008D00070BD00202863202105F13C0000224170FA
:1008E00000218170416841F0200141600270704731
:1008F00070B505460C461646286841694A061DD45F
:100900004169CA0609D400F03FFB801B844201D331
:10091000002CF1D1FFF7DDFF0EE06FF01001416117
:1009200000202863202105F13C00417000218170E6
:100930004168416000210170012070BD002070BD40
:1009400001684A69530511D56FF480634B6100213A
:1009500001633C30202141700022002181704168F8
:1009600041F004014160027001207047002070478F
:100970004B4881B0016841F001010160026802F05A
:10098000010200920099416841F080514160406845
:1009900000F08050009000984248016821F0E0612A
:1009A00041F00071016001B0704718B585B000F0EA
:1009B00068F821683C4A91421DD1394C206840F0CA
:1009C000080020601222216801F0080100914FF414
:1009D00040610098019103200490029201A93348DC
:1009E00000F0D8FA606840F480006060606800F44D
:1009F00080000090009806B010BD80B500682C49BA
:100A0000B0F1804F12D1086840F001000860002268
:100A1000096801F001010091002100981C2000F0FC
:100A2000BFFBBDE802401C2000F0D7BB214A90422A
:100A300008D1086840F002000860096801F002016E
:100A40000091009801BD18B585B000F01AF8216832
:100A50001948134AB1F1804F03D100F017F8012271
:100A600005E0144B99420AD100F010F8C022009919
:100A7000019202230293049301A900F08BFA06B0BD
:100A800010BD044601A8102100F0D2BB116841F04E
:100A900004011160126802F0040200927047000025
:100AA000181002400400014000580040000C0140B2
:100AB0001C10024000040040000801402DE9F843EA
:100AC000040016D02078DFF87C64C10713D5706865
:100AD00000F00C00042807D0706800F00C00082813
:100AE00040D17068C1033DD53168880303D5606883
:100AF000002800F0F6802178DFF85474880719D5B3
:100B0000706810F00C0F07D0706800F00C00082817
:100B100062D17068C1035FD43168880703D520694A
:100B2000012840F0DE803168606921F0F80141EA77
:100B3000C00131602178080772D5A069DFF814146C
:100B4000002867D001220A6000F01EFA0546706A8C
:100B5000810700F1C88000F017FA401B0228F6D97F
:100B6000032037E16068B0F5803F0FD038B93168B5
:100B700021F480313160306820F4802009E0B0F544
:100B8000A02F316807D141F480213160306840F4F2
:100B90008030306006E021F480313160326822F428
:100BA00080223260606858B100F0EEF90546316885
:100BB0008803A0D400F0E8F9401B6528F7D3CFE7FD
:100BC00000F0E2F905463068810394D500F0DCF9C5
:100BD000401B6528F7D3C3E7206970B10121396054
:100BE00000F0D2F905463068810700F1B68000F0C8
:100BF000CBF9401B0228F6D9B2E7386000F0C4F9FF
:100C000005463068810795D500F0BEF9401B0228E3
:100C1000F7D9A5E7086000F0B7F90546706A8107C3
:100C200070D500F0B1F9401B0228F7D998E708B950
:100C3000306A09E00528306A06D140F004003062CD
:100C4000306A40F0010005E0400840003062306A40
:100C500020F00400306241F28938E06868B100F0A9
:100C600093F98146306A810700F1848000F08CF9A5
:100C7000A0EB09004045F5D372E700F085F9814605
:100C8000306A810776D500F07FF9A0EB0900404576
:100C9000F6D365E700F078F9401B02287BD95FE7BF
:100CA00000F072F9001B022840F28F8058E700F034
:100CB00093F804463068810140F18B8000F064F9BC
:100CC000001B0228F6D94BE701280AD07068226A77
:100CD00000F48031914202BF00F47010616A8842D2
:100CE00077D0012076E0DFF860020168C9084FF490
:100CF0007A72B1FBF2F2009200BF0098411E002808
:100D00000091F9D12078410739D5F0690025C1005B
:100D100009D4F06940F08050F0610125F06900F0DD
:100D2000805000900098DFF83082D8F80010C80595
:100D30001BD4D8F8000040F48070C8F8000000F020
:100D400023F98146D8F80010C8050ED400F01CF92C
:100D5000A0EB09006528F5D302E73068616920F04F
:100D6000F80040EAC1003060E4E6E06801287FF462
:100D70005EAF65E71DB1F06920F08050F061E06979
:100D800038B3716801F00C0108299DD002288ED17A
:100D900000F022F80546306881013FF57BAF206AFC
:100DA000B0F5803F05D17168A06821F4003101439E
:100DB00071607168206A21F474110143606A014313
:100DC0007160012000F009F80446306881017FF568
:100DD00067AF0020BDE8F2830020386600F0D4B889
:100DE0002DE9F8430400884673D05C4E306800F06B
:100DF0000700404502D200F072F86AD12068514DD8
:100E0000810712D5400703D5686840F4E060686048
:100E10002178080703D5686840F460506860696805
:100E2000A06821F0F001014369602078C10748D52E
:100E30006068012802D129688A0303E0022803D1EF
:100E400029688A0103D444E02A68910741D569687A
:100E5000890840EA8100686041F2893900F094F81D
:100E600007466868616800F00C00B0EB810F28D07D
:100E700000F08AF8C01B4845F3D303201FE0207818
:100E8000410705D56968E06821F4E06101436960C4
:100E90002078010706D56868216920F4605040EA8F
:100EA000C100686000F025F86A682D49C2F303129A
:100EB000895C254AC840106000F00DF80020BDE8AC
:100EC000F283306800F007008045D8D200F007F8C0
:100ED000D5D00120F3E72348006800F0ADB93168B0
:100EE000C90848EAC1013160306800F00700404598
:100EF00070471D4915480A6802F00C03082B00D002
:100F0000704710B50FF26C04C2F38343D203E35C65
:100F100009D509680FF26C02C1F340415843515C96
:100F2000B0FBF1F010BD18461049484310BD06480B
:100F30000D4A006813680E49C3F30222FFE7895C7B
:100F4000C8407047001002408000002000127A0064
:100F500000004242800442420070004000200240F3
:100F6000E42A00087C0000200410024000093D0033
:100F7000702F000802030405060708090A0B0C0D70
:100F80000E0F10100102000001484068704700BFBA
:100F9000740000202DE9F84F00240025654A664BB7
:100FA000DFF898814FF00F094FF0010A83468E4613
:100FB0000CE0D1680840D06007E09660DEF804607D
:100FC000B602F6D5D0680143D160641CDEF800108B
:100FD00031FA04F000F0A6800AFA04F73940B94269
:100FE000F3D1DEF8040058B301281AD002281FD02C
:100FF000032833D0112817D012281DD0504EB042EC
:101000001CBF504EB0421BD04F4EB0421CBF4F4E83
:10101000B04215D04E4EB0421CBF4E4EB0420FD023
:101020001DE0DEF80C501AE0DEF80C502D1D16E025
:10103000DEF80C50083512E0DEF80C500C350EE0EE
:10104000DEF8080008B9042509E0012819BF0825C1
:10105000CBF814700825CBF8107000E00025B1F52E
:10106000807F03D258464FEA840C05E0A4F10806BD
:101070000BF104004FEA860C066809FA0CF7BE4330
:1010800005FA0CF73E430660DEF80400C0009CD56C
:10109000D8F8000040F00100C8F80000A600D8F819
:1010A000000000F00100009006F00C0C0098A00871
:1010B00053F8207009FA0CF627EA0606264FBB45BE
:1010C00008BF00270ED0254FBB4508BF012709D018
:1010D000234FBB4508BF022704D0224FBB450CBF9E
:1010E0000327042707FA0CF73E4343F82060C84360
:1010F000DEF80460F60316684CBF0E430640166027
:10110000DEF80460B60356684CBF0E4306405660D6
:10111000DEF804609768F6024CBF41EA070600EA71
:1011200007064AE7BDE8F18F81B002B90904016101
:1011300001B070470004014008000140181002404F
:1011400000001110000012100000211000002210F9
:10115000000031100000321000080140000C014076
:1011600000100140001401400901020081B002D4C6
:101170002948815405E0294802F00F02104400F884
:10118000041C01B07047264A13684FF6FF010002A5
:101190000B4000F4E0601843224908431060704798
:1011A00038B51F4B1C68C4F30223C3F10704052C98
:1011B00028BF04241D1D072D34BF0023DB1E01257D
:1011C00005FA04F4641E2140994005FA03F35B1EFE
:1011D0001A401143BDE83440C6E7002807D4012275
:1011E00000F01F01104B8A40400943F8202070474F
:1011F00010B5401EB0F1807F01D3012010BD0B4C13
:1012000060600F214FF0FF30FFF7AEFF0022A260B9
:1012100007202060002010BD00E400E018ED00E091
:101220000CED00E00000FA0500E100E010E000E055
:10123000002200F021B8000038B50D4D0D4A297884
:1012400004464FF47A70B0FBF1F11068B0FBF1F096
:10125000FFF7CEFF50B9102C08D2002221464FF0E4
:10126000FF30FFF79DFFAC60002032BD012032BD92
:10127000740000208000002000B500BF13009646D7
:101280009446103928BFA0E80C50FAD85FEA417C98
:1012900028BF0CC048BF40F8042BC90728BF20F85E
:1012A000022B48BF00F8012B00BD000078B589B0C3
:1012B00000F07AFA00F046FA68461021FFF7B8FF0E
:1012C000DFF82C04DFF82C640168DFF82C44DFF829
:1012D0002C5441F004010160026802F004020492FF
:1012E0000499016841F010010160026802F01002E7
:1012F000049200220499016841F008010160202154
:10130000006800F00800049004983046FFF70CFFD6
:101310000022602100F0D2F900224FF440712846EB
:10132000FFF702FF202000F0B0F830466946FFF7D3
:1013300031FE602000F0A9F820466946FFF72AFE3A
:101340004FF4407000F0A1F828466946FFF722FEEE
:10135000DFF8AC43DFF8AC03DFF8AC532060DFF814
:10136000AC0360600020A060E0604FF4804020612A
:1013700000206061A061E06120622046FEF7B6FEB9
:101380000FF21C401C2100F07AF8FFF751FFDFF844
:101390008003286040F27F2068600020A86040F24F
:1013A000E730E86000202861A861284600F028FAAC
:1013B0000020009001906946284600F04DFC002175
:1013C00003910491069160200290002202A9284610
:1013D00000F0F2FA042202A9284600F0EDFA2846AD
:1013E000FFF731FB0FF2B030CA4E00F048F81C2175
:1013F000FFF71EFF4FF0804030604FF6FF10706027
:101400000020B0600520F06000203061B0613046FF
:1014100000F0F6F90020009001906946304600F097
:101420001BFC602000210290039104910691002290
:1014300002A9304600F0C0FA3046FFF704FB2868E6
:10144000002141638163284600F0E7F90421284622
:1014500000F0E3F9204600F01FFC204600F041FCBC
:101460004FF47A71204600F047FC00230022AA497D
:10147000204600F055FC304600F0A8F9FEE7D0E920
:101480000023CDE9002302A87047012100900191BB
:10149000002002210290039170470068B0F1804F54
:1014A00000D0704780B500F003F8BDE8014075E05A
:1014B0002DE9F047924CDFF860A200225146204609
:1014C00000F06EFC00225146204600F0A1FC8E4F39
:1014D000B86C00F0FBFC0446BAF908000D4600F0B9
:1014E00019FD00228D4B00F027FD00F0BFF800F041
:1014F00051F800F045FE06463E64BAF90E0000F0D1
:1015000009FD0446BAF912000D4600F003FD8046BD
:1015100089462046294622462B4600F065FE0446B1
:101520000D464046494642464B4600F05DFE00F0FF
:1015300031F800F02BFF0446BAF910000D4600F018
:10154000E9FC22462B4600F0F7FC00F099FF002250
:10155000734B00F049FE734A734B00F0EDFC00F052
:101560000FFE7864304600F0B1FC4FF066326F4BEE
:1015700000F03AFE0446786C0D4600F0A7FC6C4A79
:101580006C4B00F031FE00F005F800F0F9FDB86496
:10159000BDE8F08722462B4600F0C6BF2DE9F84390
:1015A000594CA06C216E01F07BF80546E06CA565F6
:1015B000294601F0B5F80646A06E666600F086FC86
:1015C00007468946206D294601F0AAF800F07EFC06
:1015D00000F04CF83A464B4600F0A6FF00F0D0FD74
:1015E0000746E16DA766284601F05AF8616D01F0E3
:1015F00097F800F06BFC504A504B00F09DFC00F057
:10160000BFFD8046C4F86C80E5653046394601F080
:10161000F3F8414601F0F0F801F060F940F2E731EB
:10162000884202DC4649884200DA084620670021E9
:10163000284601F069F902D200F028F80AE001F02A
:1016400075F902D200F016F804E001F081F908BF44
:1016500000F037F8206F002802DC05D540422067F3
:1016600021684863206F8863BDE8F183324A334BB9
:1016700000F0BABD10B5204C012200F01EF8002287
:10168000402100F01BF81D4C012224E010B51A4C3B
:101690000122402100F012F800F00EF8174C012250
:1016A0004FF4007100F00AF82046BDE81040002217
:1016B0004FF48071FFF738BD002220212046FFF74C
:1016C00033BD10B50C4CFFF7F7FF00224021FFF7A8
:1016D000F5FF0A4C00224FF48071FFF7EFFF204620
:1016E000BDE8104000224FF40071FFF71DBD00005F
:1016F000181002400008014000100140000C014099
:10170000840000200058004000000020A086010056
:1017100000040040D8000020180100200060604054
:10172000008066401F85EB51B81E09406666EE3F9B
:101730009A9999999999A93F7B14AE47E17A743F98
:1017400019FCFFFF00B58FB005A82821FFF770FD39
:1017500068461421FFF76CFD0220059001210991D4
:1017600010200A9002210C9100200D904FF460117E
:101770000E9105A8FFF7A2F90F2002210090019118
:1017800000204FF48061029003910490022168468A
:10179000FFF726FB0FB000BD0000000000000000B6
:1017A000000000000000000080B50748016841F01B
:1017B000100101600320FFF7E6FC0020FFF73CFD6D
:1017C000FFF7D6F8002002BD002002400068C16883
:1017D00041F00101C160816801F00701062903D0D1
:1017E000016841F00101016000207047022068702B
:1017F000211D206800F054F901206870002032BDDE
:1018000038B5040001D1012032BD00F025F818B927
:1018100000F01EF8FFF7F1F8E8E71CB500F020F83B
:1018200000F00CFA2068DFF84010884205D1DFF89C
:101830003C100A6842F400420A60816801F0070126
:10184000062903D0016841F001010160002016BDA6
:10185000002129702046704704F13C0568787047E4
:101860000446012220687047002C0140442C0140AE
:1018700010B50446206801698A0715D5C1688A0732
:1018800012D56FF00202026101212177806910F008
:10189000030F204602D001F069F803E001F067F879
:1018A00000F087F800202077206801694A0715D5E5
:1018B000C1684A0712D56FF0040202610221217744
:1018C000806910F4407F204602D001F04FF803E019
:1018D00001F04DF800F06DF80020207720680169D4
:1018E0000A0715D5C1680A0712D56FF00802026110
:1018F00004212177C06910F0030F204602D001F0C7
:1019000035F803E001F033F800F053F800202077B9
:1019100020680169CA0615D5C168CA0612D56FF0DC
:101920001002026108212177C06910F4407F20462F
:1019300002D001F01BF803E001F019F800F039F8CB
:101940000020207720680169CA0708D5C168CA0746
:1019500005D56FF0010202612046FFF79EFD206869
:1019600001690A0608D5C1680A0605D56FF080022C
:101970000261204600F0FCFF206801694A0608D594
:10198000C1684A0605D56FF040020261204600F0AA
:10199000F0FF206801698A060AD5C1688A0607D562
:1019A0006FF0200202612046BDE8104000F0E2BF67
:1019B00010BD204600F0DFBF70B500F065F801D122
:1019C000022070BD00F067F832B1042A17D0082A4F
:1019D00028D00C2A39D04AE03068294600F08FF828
:1019E0003068816941F0080100F04AF821F00401F3
:1019F000816131688A69286902438A6137E0306809
:101A0000294600F09EF83068816941F4006100F0D9
:101A100037F821F4806100F033F82A6941EA0221A5
:101A2000816124E03068294600F0B4F83068C1696B
:101A300041F0080100F020F821F00401C161316893
:101A4000CA6928690243CA6111E03068294600F07A
:101A5000CCF83068C16941F4006100F00DF821F460
:101A6000806100F009F82A6941EA0221C161012080
:101A700060700020207070BDC1613068C16970471E
:101A80008161306881697047064606F13C040D4665
:101A90002078012870470121217002206070704772
:101AA00070B5624E0368624C624DB04218BFB0F12F
:101AB000804F03D0A84218BFA04209D14A6823F042
:101AC00070031343B0421CBFB0F1804FA84201D055
:101AD000A04203D1CA6823F4407313434A6923F038
:101AE000800313430360B0428A68C2620A6882625C
:101AF00002D10969504A11600122426170BD30B5BE
:101B0000026A520852000262056A4368846900F062
:101B100066F825F002051543444A90420BD123F4A0
:101B20004073CA6825F0080515434A6913438A695A
:101B300025F00405134343608461496841630562ED
:101B400030BD70B5026A394E22F010020262B04216
:101B5000056A436884690A6824F4E64444EA022476
:101B60008A6825F0200545EA02150DD1CA684E693C
:101B700025F0800545EA02158A6923F4406316437F
:101B800025F0400543EA8603436084614968816328
:101B9000056270BD70B5026A244E22F48072026242
:101BA000056A4368C46900F01AF825F40075B0426C
:101BB00045EA02250DD1CA684E6925F4006545EA5B
:101BC00002258A6923F44053164325F4806543EACD
:101BD00006134360C4614968C163056270BD0A6849
:101BE00024F0730414438A68704770B5026A0F4E7C
:101BF00022F480520262B042046A4268C3690D68EE
:101C000023F4E64343EA05238D6824F4005444EAB0
:101C1000053404D14D6922F4804242EA85124260C3
:101C2000C36149680164046270BD0000002C01407A
:101C30000008004000040040302C014010B501F0C5
:101C40001F01036A01248C40A343036202FA01F1DD
:101C5000036A1943016210BD70B500F13C031A78A4
:101C6000012A01D1022070BD01241C7002225A7089
:101C700004686568A6684A68096825F070050D4320
:101C8000656026F080060068164386600121597061
:101C90000020187070BD00001CB5044675208DF83A
:101CA000050000214FF47A708DF804100090012394
:101CB0000DF10502D0212046FEF7AEFA4FF47A70FE
:101CC0000090012301AAD0212046FEF73CFB9DF89D
:101CD00004006828FDD12D4801222021FFF724FAB5
:101CE00013BDE0B56B218DF8041000224FF47A711A
:101CF0008DF8052000910DE0E0B519228DF8042043
:101D00004FF4FA5393FBF1F1491E4FF47A728DF8B8
:101D100005100092022301AAD021FEF77DFA07BD2B
:101D2000FEB50C461B218DF8041016461D46F20028
:101D3000E9008DF805208DF806104FF47A770097AA
:101D4000032301AAD021FEF767FA032E0BD8DFE8A0
:101D500006F0020406080E4804E00E4802E00E48B1
:101D600000E00E482060032D0FD8DFE805F00205E3
:101D7000080B4FF08D4007E04FF08C4004E04FF02F
:101D80008B4001E04FF08A406060F7BD00080140E1
:101D90000000034300008342333303423333834163
:101DA000F8B584B00546432000F082F800F071F8E1
:101DB00002AD16B1012E15D028E09DF80800697813
:101DC00041EA002126312181A878E97841EA002101
:101DD000B23161812879697941EA002101F5AD715B
:101DE000A18113E000F05CF8216800F0C5FD60619E
:101DF00000F048F8216800F0BFFDA06129796879FA
:101E000000F042F8216800F0B7FDE06105B0F0BDD8
:101E1000F8B584B005463B2000F04AF800F039F8E8
:101E200002AD16B1022E17D02AE069789DF808009D
:101E3000A1F56C7242EA0022E281E978A87801F209
:101E4000611141EA002121826979287901F2C341B7
:101E500041EA0021618213E000F022F8616800F09D
:101E60008BFD206200F00EF8616800F085FD606275
:101E70002979687900F008F8616800F07DFDA062BA
:101E800005B0F0BDA978E87840EA012000B200F082
:101E9000F1BD0097062302AAD0212846FEF753BAC7
:101EA0009DF80810687840EA012000B200F0E2BD19
:101EB0008DF804000C4616464FF47A7700970123FC
:101EC00001AAD0212846FEF7A7B90000C0F3C751E8
:101ED00081B1FF2906D0C110400721F0E04101F196
:101EE0006051704741020CBF40F4E0016FF00041C7
:101EF0000020704700F0004100020AD0B0FA80FCD8
:101F000000FA0CF001F16051A1EB0C5101EBD02172
:101F100040057047C11768B14840401AB0FA80F2D6
:101F20009040D21CC907C2F5846241EA025202EB1A
:101F3000D021400570470000F0B540F2FF7581EAFE
:101F4000030C0CF0004C15EA11541DBF15EA135791
:101F5000AC42AF42E5E0BC41C1F31301C3F313034C
:101F6000801A994143F4801304D2641E4000494111
:101F700080185941C90241EA5051B1FBF3F603FB05
:101F80001611A2FB0675D7EBC020A94102D2761E1E
:101F900080185941C90241EA5051B1FBF3FE03FBDD
:101FA0001E11A2FB0E75D7EBC020A94103D2AEF1E2
:101FB000010E80185941890241EA9051760546EA9E
:101FC0008E2EB1FBF3F603FB1611A2FB0675D7EBC1
:101FD0008020A94102D2761E80185941C90241EAE7
:101FE00050514EEA060EB1FBF3F603FB1611A2FBAD
:101FF0000675D7EBC020A94102D2761E8018594140
:10200000C90241EA5051B1FBF3F703FB1711A2FBE0
:102010000735D3EBC020A94167F100070CBF004290
:1020200047F0010766F3D5274FEA1E31B80814F5CB
:10203000806412DDBD0775F1004250EB0E5051EB8C
:10204000045111F5801F5CBF41EA0C01F0BD4CF05A
:102050007F6141F0E0410020F0BDBD076D0840EA1E
:102060000E5041F48011D4F10104B4F120060ADAD3
:10207000C4F120060200E04001FA06F3E1401843F3
:10208000B24015430EE0342C13DCC6F1200445EABF
:1020900040056D0820FA06F2154321FA06F0A1402A
:1020A0000D43002175F1004250F1000051EB0C018D
:1020B000F0BD00205FEA0C01F0BDCFB992185B4182
:1020C000B3FA83F704BFB2FA82F6BF190B3FB7F138
:1020D00020062FBF02FA06F3BB40C7F1200622FA02
:1020E00006F638BF3343BA401CB1E419641E33E727
:1020F0007F4231F00041B1FA81F404BFB0FA80F6BA
:10210000A4190B3CB4F120062FBF00FA06F1A14040
:10211000C4F1200620FA06F638BF3143A0403C1B2C
:102120001AE7AC421ABF05EA1357AF4212E050EA71
:1021300041061CBF52EA4306BFE750EA410730465A
:1021400061461CBF41EA0551F0BD52EA430C08BF8D
:10215000C143F0BD00204FF4001616EB410F98BFAD
:1021600016EB430F08BF16EB410F24BFC14305E038
:1021700016EB430F0CBF61464CEA0551F0BD000061
:1021800001F000428B1AA3F16051B1F5801F0ADB08
:10219000B1F17F6F1FD242EAC102C10071F100416B
:1021A00042EB507070470B15C3F10903212B10D27D
:1021B000890241EA905180020128494141F00041E1
:1021C00021FA03F0C3F12003994071F1004150411D
:1021D0007047100070476FF0000013EB103F5CBFBA
:1021E000000E42EAC0507047B0B581EA030C0CF013
:1021F000004C40F2FF7515EA11541DBF15EA135744
:10220000AC42AF4239E0E41923EA455343F480136A
:10221000C90241F0004141EA505EC7021100A7FB2C
:10222000020200284FF00000EEFB01204FF00001F9
:10223000E3FB072118BF42F0010240180021494189
:10224000E3FB0E01A4F580640F0302D2520040416B
:10225000494154F101046CDD470872F1004250F12C
:10226000000051EB0451A1F580115CBF41EA0C0163
:10227000B0BD4CEA05510020B0BD05EA1357AC4291
:1022800014BFAF4241E050EA410E1CBF52EA430E78
:1022900002E061460020B0BD24423C441BD15FEA0D
:1022A000070EF6D0090302BF01460020AEF1140E5E
:1022B000B1FA81F7AEEB070401FA07FE0C37C7F15C
:1022C000200100FA07F7C8404EEA000E23EA455302
:1022D00043F48013A2E733F00043B3FA83F704BF5B
:1022E000B2FA82FE77440B3FE41BB7F1200E2FBFFA
:1022F00002FA0EF3BB40C7F1200E22FA0EFE38BFE1
:1023000043EA0E03BA40641C82E750EA410E14BF50
:1023100052EA430E6FF000014FF4001717EB430F22
:102320008ABF194617EB410FB5E74CEA055100206B
:10233000B0BDD4F10104B4F120070FDAC4F12007D5
:10234000520828BF42F0010210FA07F501FA07F718
:10235000E1BF2A43E0403843E1400FE0352C98DCF0
:10236000C7F1200452EA400220FA07F218BF42F0F7
:10237000010231FA07F0A1400A43002172F1004244
:1023800050F1000051EB0C01B0BD000040F2FF7CA9
:102390000B0D4DD0634566D230B421EA035141F4B0
:1023A000801103F2FD3C5FEA5C0C01D30018494147
:1023B000890041EA907180004FF440140023E2024A
:1023C000D50AB1F5100107D46D081DD2091B641997
:1023D00000184941491BF7D56D080AD20919641B39
:1023E00000184941491BEFD56D08F7D301E05208A9
:1023F00017D0C01861419B1AAC4100184941801A9E
:10240000A941F4D452080AD0C01AA1419B186C41CA
:1024100000184941801AA941E9D45208F4D15B1C43
:102420006C4161084FEA330001EB0C5130BC70473E
:1024300050EA0103FBD030B4B1FA81F311B9B0FA1C
:1024400080F41B190B3BB3F120042FBF00FA04F1F9
:102450009940C3F1200420FA04F438BF2143984086
:10246000D3F101039DE7634514BF50EA410CDEE759
:1024700011F5801FDBD8D943AFF30080704700000F
:102480002DE9784804460D4668004015401C0CD1E3
:1024900048004015401C01D1090310D11F492048B4
:1024A00005F000431943BDE8748825F0004300207F
:1024B000002124F000028B4208BF824203D1204653
:1024C0002946BDE87488E80F1ABF25F000450826A4
:1024D0000026002013498142BCBF4FF0004363EB4C
:1024E00001012B46834204DA4FF0004B821A6BEB5A
:1024F000030399420BDC01DB904208D209492246D2
:102500002B46FFF719FD04460D4686F002063246BB
:1025100020462946BDE8784800F0EEBAFB21F93F95
:10252000182D44540000F03F70B44FF0004591EA7C
:10253000030F40F109846B40841A71EB030604D247
:102540006E40001BB141121973414FF4001C1CEB8B
:10255000410F34BF7CEB430682E00C0DA4EB135615
:10256000362E7BDC012E45EAC32341DC43EA52537D
:1025700012BFD20292025B08240545EAC12141EA5A
:102580005051D2EBC020994125D407D1B0FA80F642
:1025900010FA06F162D00020203608E0B1FA81F688
:1025A000B140C6F1200220FA02F21143B0404FEAD6
:1025B000F474B4EB465434F001064FEA74040AD8BC
:1025C000D6F50016760D04F00044F04061FA06F2EC
:1025D0005040F1404840C00A40EA415021F00041DB
:1025E00028BF5FEA500550F1000044EBD12135E0EF
:1025F000DB0A45EAC121C90AB6F120050EDD42EA2F
:102600000242120CC5F1200603FA06F6EB4042EA3C
:1026100006056D42984161F100010DE062FA06F590
:10262000F240554063FA06FC82EA0C02F3405A403D
:102630006D42904161EB030111F4801F05D1641ECE
:10264000620502D06D004041494121F480114308E8
:1026500075F1004350F1000041EB045170BC70472C
:102660001CEB410F15D223F0004352EA43060BD076
:102670004FEA4C0CBCEB410F04D80C0D661E342EF7
:10268000B7DDEBE7801A994150EA410608BF002107
:10269000E4E708BF1CEB430F28BF6FF00001DDE744
:1026A00090EA010F40F1AE8081F00041421A3CBF38
:1026B000801A89184FF0004CC0F3C752FF2A24D06B
:1026C000C1F3C75313B3D21AD2F1190327DD4CEA71
:1026D00001214CFA03F321EA0303D140C20D4CEA75
:1026E0000020401834BF20EA0C004CEA5000D2050C
:1026F00053EA006373EB0C0C52EB1020420012F112
:10270000807F38BF7047C00DC0057047490212BFB7
:102710009A4200EB5120F8E7D2F11703D9D5704760
:10272000FF2212EAD05C1DBF12EAD15394459342B6
:102730002BE09C44D30780EA01021A4043EA0020C0
:1027400043EA0121A1FB0030C04238BF40007CF1C8
:102750007F010BDBFE294ADA5B0842EAC15153EAEA
:10276000006373F1004C51EB10207047D1F1080C5D
:10277000DCF120012FDB5B0810FA01F10B4320FA9A
:102780000CF073F100415041704794451CBF02EAC0
:10279000D153934280EA010202F000421DD0400072
:1027A00019D0490017D05BB9634514D00902B1FABA
:1027B00081F39940BCEB030CC00140F00040C1E73D
:1027C0000002B0FA80FC10FA0CF0B3EB0C0CC9015B
:1027D00041F00041B6E71000704740000AD04900C0
:1027E00008D010F1807F94BF11F1807F02E042F0A9
:1027F000FF407047D043704790EA010F7FF556AF16
:1028000081F00041431A4FF000423EBF5340C01ACE
:10281000C91800BFD3095FEAD05C13EB400F34BF87
:10282000B3EB410F40E07CEBD1530CD342EA0121E2
:1028300022D8D1EB402009D3400A28BF5FEA5001DB
:1028400040EBCC507047401A15D04002B0FA80F2ED
:10285000521C9040400A4FEA3C23B3EB026384BF12
:1028600000EB730007E040F400001A16DB07C2F12A
:102870000102D04018437047182BFCDC31FA03F2F8
:1028800002FA03F3591A38BF42F00102D2EB40209A
:102890003CBF4000ACF1010C5FEACC5CC20572F1B8
:1028A00000414CEB5020704713EB400F0FD2C94250
:1028B00009D0ACEBD153022B03DB4902172BDDDD32
:1028C00070479143401AC042D5D10020704713EBA6
:1028D000410FD0D36FF0000070470000C0F3C75124
:1028E0007E390EDDC217D1F1200106DD000240F075
:1028F0000040C840104450407047D04380F0004032
:1029000070470020704700004FF0807C1CEB400FA8
:1029100094BF1CEB410F05E040EA010C1CEB0C0FCF
:1029200001D28142704718BF884270474FF0807CC7
:102930001CEB400F94BF1CEB410F05E040EA010C7B
:102940001CEB0C0F01D28842704718BF81427047C0
:1029500040EA010C1CEB0C0F07D0884205D14FEA6E
:10296000400C1CF1807F98BF8042704770477047D1
:10297000704770477047704710B5FF2313EAD05473
:102980001DBF13EAD1529C429A4239E0A41ADA07D9
:1029900080EA0103134042EA012142EA0020421A80
:1029A0003CBF641E01EB4202090AB2FBF1FE01FBCF
:1029B0001E221202B2FBF1F001FB10226EF30F2077
:1029C0001202B2FBF1FE4EEA00207F3406DDFE2C3F
:1029D00024DA53EA500050EBC45010BDD4F1020485
:1029E00001FB1E2240F08071192C1DDC21FA04F03D
:1029F000C4F12004A140114371F10042584110BDBF
:102A00009C421ABF03EAD1529A420FE080EA010EBB
:102A10000EF00043400004D0490016D143F0FF40BF
:102A200010BD490008BFD343180010BD9C4205D11A
:102A3000D21AF7D001F00041484010BD4A0212BF3F
:102A40000846484000F0004010BD4AB90902B1FAFA
:102A500081F2914044B1A418C00140F000409EE7CB
:102A6000C90141F0004152420002B0FA80F4A04096
:102A7000141B94E7C2175040801AB0FA80F10AD0B4
:102A80008840D1F19D01D20742EAC151020672F19C
:102A9000004241EB102070470E49086840F00100E9
:102AA00008604A680C4802404A600B680B480340C3
:102AB0000B60086820F4802008604FF41F004A680B
:102AC00022F4FE024A6088604FF00060044908600A
:102AD00070470000001002400000FFF8FFFFF6FE04
:102AE00008ED00E000000000000000000102030407
:102AF00006070809000000002DE9FC4D0026B14240
:102B000004460D4604DA4FF00047301A67EB010126
:102B1000674FB742BCBF4FF0004363EB0707B942B2
:102B200008BFB042904602D1624C634DA1E06349B8
:102B30006348B14204DA4FF00043301A63EB0101FD
:102B40002B46B342224604DA4FF00047B21A67EB35
:102B50000303994220DC01DB90421DD2594E5A4FAB
:102B600032463B4620462946FFF73EFB0022574BA4
:102B7000FFF7DAFC82468B4632463B462046294622
:102B8000FFF7D2FC02460B4650465946FFF7D4F9F0
:102B900004460D4648F0010800224FF07953934255
:102BA00025F000412046BCBF4FF0004767EB030310
:102BB00004DA4FF00047101A67EB01018B4258DC32
:102BC00001DB824255D222462B4620462946FFF79A
:102BD0000BFB06460F4632463B4620462946FFF78A
:102BE00003FB82468B463A483A4932463B46FFF75A
:102BF000FBFA394A394BFFF797FC32463B46FFF761
:102C0000F3FA374A374BFFF78FFC52465B46FFF724
:102C1000EBFA22462B46FFF787FC04460D46324866
:102C2000324932463B46FFF7DFFA314A314BFFF774
:102C30007BFC32463B46FFF7D7FA2F4A2F4BFFF774
:102C400073FC32463B46FFF7CFFA2D4A2D4BFFF778
:102C50006BFC32463B46FFF7C7FA0022144BFFF7E6
:102C600063FC02460B4620462946FFF765F90446F9
:102C70000D465FEA887048BF85F0004518F00700F0
:102C80000BD00FF2840101EBC0022B46D2E9000108
:102C90002246FFF749FC04460D465FEA087047BF2D
:102CA00085F00041204620462946BDE8FC8D000005
:102CB0000000F03F182D4454FB21E93F1426D13F7A
:102CC00056CD9E5EAA4C58E87AB6FB3F0000F0BF96
:102CD000845D57134B57B03FB2934C19ED5EE43F00
:102CE000BEDE02B90240F83FDE39028FC7C0743F32
:102CF0008AAB1283000CC83F24D7E508B6D8F03F52
:102D00000F34580E5895FD3F0000000000000000F1
:102D100066732D3852C1E03F182D4454FB21F93F12
:102D200066732D3852C1F03F182D4454FB21F93FF2
:102D300066732D3852C10040182D4454FB210940C0
:102D40003FD038C6A6F10440841A71EB030603D2C3
:102D5000001BB141121973414FF4001C1CEB410FD1
:102D600034BF7CEB430442E00C0DA4EB1356352E2C
:102D70004FDC45EAC323DB0A45EAC121C912B6F19B
:102D800020050DDD63FA05F6EB4086EA03051242E5
:102D900018BF45F00105C01851F100010CD213E035
:102DA00062FA06F5F2405540F3415A40B340F34011
:102DB0005A408018594107D349085FEA30005FEA5A
:102DC000350528BF45F0010501F58011420875F170
:102DD000004250F1000041EB04514E0016F5001F77
:102DE00070BC38BF70470020090D090570471CEB07
:102DF000410F10D252EA43060BD0BCEB410F05D86D
:102E00000C0DAB43661E342EB6DD02E0AB438018DA
:102E1000594170BC704770BC704719E050F8042BE2
:102E2000D30744BFA9F101039A18091F00230429FD
:102E300042F8043BF9D25FEA817C134604D54FF097
:102E4000000CA2F800C09B1CC90744BF00211970E8
:102E500050F8041B0029E1D1704730B5016884683F
:102E60004218416802EB5103C9070BD54C4409E0F5
:102E700012F9011B12F8015B002904F8015B05D56A
:102E8000491CF9D19A42F3D10C3030BD491EF1D51D
:102E9000F8E7000010B5074979441831064C7C4426
:102EA000163404E00A68081D114488470146A1420F
:102EB000F8D110BD08000000240000005FFFFFFFF4
:102EC000C000000084000020000000008FFFFFFF12
:102ED0005001000034000000000000207047FEE7B1
:102EE000FEE7FEE7FEE770477047704700F006B860
:102EF0000148FEF7BDBC0000D800002002494A6826
:102F0000087882184A6070477400002000F00DF8BD
:102F1000002801D0FFF7BEFFAFF300800020AFF321
:102F20000080FEF7C3F900F002F80120704700F0BE
:102F300001B800000746384600F002F8FBE7000041
:102F400080B5AFF30080024A11001820ABBEFBE74A
:102F5000260002000148804701480047992A0008DE
:102F6000652F0008AFF30080AFF30080FFF7CEFFBE
:102F70000000000001020304FFF7FEBFFFF7FEBFE1
:102F8000FFF7FEBFFFF7FEBFFFF7FEBFFFF7FEBF75
:102F9000FFF7FEBFFFF7FEBFFFF7FEBFFFF7FEBF65
:102FA000FFF7FEBFFFF7FEBFFFF7FEBFFFF7FEBF55
:102FB000FFF7FEBFFFF7FEBFFFF7FEBFFFF7FEBF45
:102FC000FFF7FEBFFFF7FEBFFFF7FEBFFFF7FEBF35
:102FD000FFF7FEBFFFF7FEBFFFF7FEBFFFF7FEBF25
:102FE000FFF7FEBFFFF7FEBFFFF7FEBFFFF7FEBF15
:102FF000FFF7FEBFFFF7FEBFFFF7FEBFFFF7FEBF05
:10300000FFF7FEBFFFF7FEBFFFF7FEBFFFF7FEBFF4
:10301000FFF7FEBFFFF7FEBFFFF7FEBFFFF7FEBFE4
:10302000B20001F042F0000366663640F000000195
:0A303000F9000010FC0002A24A049F
:0400000508002F655B
:00000001FF
